:060000000A128A110C280F
:10000800FE00030EF0000A08F1000A128A11B12856
:100018000A128A110F28F501F601F701F801830188
:100028000A128A1117280A128A1165200A128A11DF
:10003800831203139F149F18222823282F281E0891
:10004800F800780888001030F400F40B2928000024
:10005800831203139F1404300A128A11C1200A1252
:100068008A1183120313870006183B283C283E2870
:10007800F701F70A061C4128422850287703031D78
:100088004628472850280430F20078080A128A11B6
:100098009E200A128A11F70183120313861C552821
:1000A8005628592885010B1063008312031306197B
:1000B8005E285F281F28013085001F280A128A1130
:1000C8000C28203083160317880089018316031330
:1000D80085010730860087018801013089000130D9
:1000E800831203138500860187018801890183161D
:1000F80003138113151495148B150B10161416156C
:100108000F088F3960388F000F149F131F129F122A
:10011800831203131F083F3940389F001F08C33953
:1001280014389F002130F200F20B98288312031331
:100138001F140800F3007208831203178D00730858
:100148008C00831603178C130C158B1355308D00F8
:10015800AA308D008C140C1108000B1CB428B5288B
:10016800BA2883120313060886000B1071088A0048
:10017800700E8300FE0E7E0E0900F20072088312D4
:1001880003178D00831603178C130C14831203179F
:040198000C08080047
:08400000FF3FFF3FFF3FFF3FC0
:04400E00D420FF3F7C
:00000001FF
